:02000000232CAF
:06000600000000000800EC
:10000C000F3083120313FC004730FD00FD0B0C284E
:0A001C00FC0B0C2800000000080097
:0E002600213083120313FD00FD0B1728080084
:0E003400F201F101F001F801F30100300800C3
:10004200FB14FB1F2B28FF30F300F200F100F0003D
:08005200FA0DF20CFF3008006A
:10005A0083120313F801F9011030FC00710DF80D39
:10006A00F90D7408F8027508031C750FF9020318D4
:10007A0045287408F80775080318750FF90703105F
:0A008A00F00DF10DFC0B3328080007
:100094007B15FB1F54280130F300F201F101F0013C
:0800A400FA0DF20CFF30080018
:0800AC00FA1FF21300300800F6
:1000B40083120313D21B6028881361288817521BEC
:1000C4006528081366280817D21A6A2888126B282C
:1000D4008816521A6F2808127028081631187428C6
:1000E400881475288810081503200811D2197C2853
:1000F40088137D2888175219812808138228081725
:10010400D218862888128728881652188B28081235
:100114008C280816311890288814912888100815FE
:1001240003200811311C9828062099281320080060
:100134007B14FB1FA528F201FA1FFF30F200F10027
:0A014400F000FA0DF20CFF30080085
:10014E008312031331104D08D2005A2031140800C7
:10015E000E3083120313FD00FD0BB32800000800C0
:0E016E008312031333088A003208820008004F
:10017C00A0017208031DD3287108F2007008F10069
:10018C00F001A0157208031DD3287108F200F101CB
:10019C00A011201672080319E1282008F302031D90
:1001AC00031CE5280310F21BE928F00DF10DF20DEC
:1001BC00F30BD928E5280130FC001A20EC2802307A
:0E01CC00FC004A20EC280430FC0056200800FD
:1001DA0083120313D001053050020318FB2850087C
:1001EA004F07840020308000D00AF02850084F07BB
:1001FA0084008001D00350084F07D1000A30F40070
:10020A00F5014D08F0004E08F1002D207808F000A5
:10021A007908F1003030F007510884007008800036
:10022A000A30F400F5014D08F0004E08F1002D20C7
:10023A007008CD007108CE0000307106031D272911
:10024A0000307006031D2A292C29D0030029080032
:10025A007C186329FC1834297C1982292D29A001CC
:10026A007208031D54297108F2007008F100780819
:10027A00F000F801A0157208031D54297108F20054
:10028A007008F100F001A01120167208031D54290C
:10029A007108F200F101A0157208031976292008E5
:1002AA00F302031D031C7A290310F21B6329F80DBC
:1002BA00F00DF10DF20DF30B5A297A297B1B701CF4
:1002CA007E29F81F7E29F00A0319F10A0319F20A96
:1002DA00031D7E29F20CF10CF00CF30A0319822992
:1002EA007E290130FC001A2085290230FC004A20B0
:1002FA0085290430FC00562085290830FC0021207D
:04030A0000000800E7
:10030E003C30831203139F05C0309F004408F00059
:10031E00F00D7010F00D701070089F0483169F176B
:10032E0083121F14AF209F149F1C9F2900009B292E
:10033E001F101E08F100F00183161E08F004003095
:04034E00F1040800AE
:1003520083120313C901CA014408CB004508CC002B
:1003620080304506F00080307002031DBA2900304B
:1003720044020318C8290130C9000030CA004408E9
:10038200003CCB004508031C013ECC01CC024B08CB
:10039200CD004C08CE004608CF00ED200630C70045
:1003A2000030C8004808003C031DD9294708003C1A
:1003B2000318F42947084607F20001304702F0000B
:1003C2000030031C013E4802F10070084607840019
:1003D2000008F00072088400700880000130C70233
:1003E200031CC803D3294608840020308000490832
:1003F2004A040319122AC701C801470846078400A4
:100402000008203A031D092AC70A0319C80AFE294F
:100412000130C702031CC8034708460784002D3079
:04042200800008004E
:1004260083120313FB017308031D770803196A2A55
:1004360072087606FA007708F3077E30031C272A2F
:10044600F30203186D2A2A2AF302031C702A720883
:10045600F8007108FC007008FD00F817F617031085
:10046600F201F101F0011830A0007D1C442A740845
:10047600F00775080318750FF10776080318760F4D
:10048600F207F20CF10CF00CF80CFC0CFD0C03104E
:10049600A00B382AF21B542AF80DF00DF10DF20DBF
:1004A600F3037B1B701C662AF81F662AF00A0319E1
:1004B600F10A0319F20A031D662AF20CF10CF00C7C
:1004C600F30A03196D2AFA1FF2130030722A01305B
:1004D6001A20722A02302120722A04304A20000093
:0204E60008000C
:1004E800831203137008F8007108F000F101F2019B
:1004F800F301FB01FC019630F300FA017008F100EA
:0C0508007808F000F801F201BE200800A5
:1005140083120313FB01FC01FA0173080319C92AAE
:10052400F2178E30F302F31B9A2A03199A2ACC2A63
:10053400F309F30A08307302031CAF2AF300F10D28
:100544007208F100F20108307302031CAF2AF10DA6
:10055400F1017308031D0310B72A73080319B72A9E
:100564000310F20CF10CF30BB22A7B1B711CC12A91
:10057400031CC12AF10A0319F20AF21BD82AFA1F32
:10058400DB2AF209F109F10A0319F20ADB2AF20162
:10059400F101DB2A7B14FB1FDE2AF201FA1FDE2A9B
:1005A400FF30F200F100FA0DF20CDE2A0130FC00FB
:1005B400E02A0030FC00E02AFF30FC00FC080319AC
:0E05C400E42A9A207108F0007208F100080085
:1005D200FB2A803083120313C4000E2BC030C400E8
:1005E2000E2B9430C4000E2BD430C4000E2B80305E
:1005F200C4000E2B831203134408013A0319EA2A9A
:100602004408023A0319EF2A4408033A0319F22A6A
:100612004408043A0319F52AF82A4503F00044086D
:10062200F0077008C4007008D2005A203110C701C8
:1006320047084607840000080319272B4708460786
:1006420084000008CD00A720C70A192B3114080026
:1006520083160313081188100812881208138813CE
:1006620083120811881088130813881208120620B2
:1006720006200620881608160815032008110620F1
:10068200081503200811062008150320081106206A
:100692000812081503200811062008150320081166
:1006A20088128817081503200811062088130816D7
:1006B2000815032008110812081503200811062046
:1006C2000815032008110816081503200811062032
:1006D200081208150320081188170817881608162B
:0C06E20008150320081106203114080040
:1006EE008312031372087606A000F801F90173084D
:1006FE007702031C9A2B7708FD007308F7007D081C
:10070E00F3007608FD007208F6007D08F200750809
:10071E00FD007108F5007D08F1007408FD007008F9
:10072E00F4007D08F00077080319132C7208FA0004
:10073E00F217F61777087302F7000319CD2B08305E
:10074E007702031CC32BF7007408F9007508F40038
:10075E007608F500F60108307702031CC32BF7006C
:10076E007408F9007508F400F50108307702031CCF
:10077E00C32B7A08F200132C77080319CD2B031024
:10078E00F60CF50CF40CF90CF70BC62BA01FDA2B9C
:10079E00F909F409F509F609F90A0319F40A031916
:1007AE00F50A0319F60A7908F80774080318740F86
:1007BE00F00775080318750FF10776080318760F02
:1007CE00F207A01BF32B031C032CF20CF10CF00C04
:1007DE00F80CF30F032C0F2C0318072CF809F00953
:1007EE00F109F209F80A0319F00A0319F10A0319BB
:1007FE00F20A8030FA060B2C0130FC002D21152C4C
:10080E000230FC002D21152C0430FC00BE20152CCE
:10081E000830FC002120152C0030FC0000000800E0
:10082E00B7208A110A128000840AB20A0319B30A89
:08083E00F003031D172C080054
:10084600503083120313A1007230A2006530A3005A
:100856007330A4006930A5006F30A6006E30A70083
:100866002030A8006530A9006E30AA002030AB0009
:100876004B30AC005030AD006130AE003A30AF00C6
:10088600B00129230C30D2005A200130C4000130B7
:10089600C5002130C600E922C40187217422EB304D
:1008A600F4006E30F5005E30F6007B30F700132260
:1008B6000030F4000030F5002030F6008230F700FA
:1008C60077238A227008C4007108C5003430C60038
:1008D600A9210230C4000130C5003430C600E92227
:1008E6000230FB000430FC00BA30FD00FD0B792C11
:0E08F600FC0B792CFB0B792C00004F2C812C75
:04400E00F12F000787
:00000001FF
