:02000000E32CEF
:100006000F3083120313FC004730FD00FD0B092857
:0A001600FC0B0928000000000800A0
:0E002000213083120313FD00FD0B142808008D
:06002E00000000000800C4
:10003400FB14FB1F2428FF30F300F200F100F00052
:08004400FA0DF20CFF30080078
:08004C00FA1FF2130030080056
:100054007B15FB1F34280130F300F201F101F0019C
:08006400FA0DF20CFF30080058
:0E006C00F201F101F001F801F301003008008B
:10007A007C187328FC1844287C1992283D28A00172
:10008A007208031D64287108F2007008F1007808EC
:10009A00F000F801A0157208031D64287108F20027
:1000AA007008F100F001A01120167208031D6428DF
:1000BA007108F200F101A0157208031986282008B8
:1000CA00F302031D031C8A280310F21B7328F80D80
:1000DA00F00DF10DF20DF30B6A288A287B1B701CB8
:1000EA008E28F81F8E28F00A0319F10A0319F20A5A
:1000FA00031D8E28F20CF10CF00CF30A0319922856
:10010A008E280130FC00362095280230FC002A2077
:10011A0095280430FC00262095280830FC001A2077
:04012A0000000800C9
:10012E00A0017208031DAC287108F2007008F100DE
:10013E00F001A0157208031DAC287108F200F10140
:10014E00A011201672080319BA282008F302031D05
:10015E00031CBE280310F21BC228F00DF10DF20D88
:10016E00F30BB228BE280130FC003620C528023021
:0E017E00FC002A20C5280430FC0026200800C2
:10018C0083120313F801F9011030FC00710DF80D06
:10019C00F90D7408F8027508031C750FF9020318A1
:1001AC00DE287408F80775080318750FF907031093
:0A01BC00F00DF10DFC0BCC2808003B
:1001C60083120313D31BE9288813EA288817531BC5
:1001D600EE280813EF280817D31AF3288812F428F4
:1001E6008816531AF8280812F92808162C18FD281C
:1001F6008814FE288810081517200811D319052918
:1002060088130629881753190A2908130B29081772
:10021600D3180F2988121029881653181429081282
:10022600152908162C18192988141A298810081552
:10023600172008112C1C2129032022291020080030
:100246000E3083120313FD00FD0B27290000080062
:06025600FB15FF3008005B
:10025C00831203132C104E08D300E3202C14080037
:10026C0083120313D101053051020318442951089C
:10027C005007840020308000D10A392951085007DA
:10028C0084008001D10351085007D2000A30F400D9
:10029C00F5014E08F0004F08F100C6207808F00078
:1002AC007908F1003030F0075208840070088000A3
:1002BC000A30F400F5014E08F0004F08F100C6209A
:1002CC007008CE007108CF0000307106031D702934
:1002DC0000307006031D73297529D10349290800C4
:1002EC007B14FB1F8129F201FA1FFF30F200F10091
:0A02FC00F000FA0DF20CFF300800CC
:0E030600831203132E088A002D0882000800BF
:100314008312031372087606A000F801F90173082A
:100324007702031CAD297708FD007308F7007D08E8
:10033400F3007608FD007208F6007D08F2007508E7
:10034400FD007108F5007D08F1007408FD007008D7
:10035400F4007D08F00077080319262A7208FA00D1
:10036400F217F61777087302F7000319E02908302B
:100374007702031CD629F7007408F9007508F40005
:100384007608F500F60108307702031CD629F70039
:100394007408F9007508F400F50108307702031CAD
:1003A400D6297A08F200262A77080319E0290310CF
:1003B400F60CF50CF40CF90CF70BD929A01FED2958
:1003C400F909F409F509F609F90A0319F40A0319F4
:1003D400F50A0319F60A7908F80774080318740F64
:1003E400F00775080318750FF10776080318760FE0
:1003F400F207A01B062A031C162AF20CF10CF00CBF
:10040400F80CF30F162A222A03181A2AF809F009FD
:10041400F109F209F80A0319F00A0319F10A031998
:10042400F20A8030FA061E2A0130FC003D20282AF8
:100434000230FC003D20282A0430FC009720282AA2
:100444000830FC001A20282A0030FC0000000800B4
:1004540083120313FB01FC01FA0173080319692ACF
:10046400F2178E30F302F31B3A2A03193A2A6C2A44
:10047400F309F30A08307302031C4F2AF300F10D49
:100484007208F100F20108307302031C4F2AF10DC7
:10049400F1017308031D0310572A73080319572A1F
:1004A4000310F20CF10CF30B522A7B1B711C612A12
:1004B400031C612AF10A0319F20AF21B782AFA1FB3
:1004C4007B2AF209F109F10A0319F20A7B2AF201E3
:1004D400F1017B2A7B14FB1F7E2AF201FA1F7E2A7C
:1004E400FF30F200F100FA0DF20C7E2A0130FC001C
:1004F400802A0030FC00802AFF30FC00FC0803192D
:0E050400842A76217108F0007208F1000800C8
:10051200831203137408003A031DA42A7508003AD3
:10052200031DA42A7608003A031DA42A7708003A7C
:10053200031DA42AFF30F000FF30F1007F30F200EB
:10054200FF30F30008008312031377080319332BDB
:1005520073080319362B720876068039FA00F217EF
:10056200F617A0017208F8007108FC007008FD007F
:100572007408FD027508031C750FFC027608031C43
:10058200760FF802F801FC01FD01031CCF2A0310CB
:10059200F20CF10CF00CF80C0130A0007708F30219
:1005A200031CD92A7E302007F3070318392BDE2AD1
:1005B2007E302007F307031C3C2B1830FA07FD0D91
:1005C200FC0DF80DF00DF10DF20DA00D7408F00206
:1005D2007508031C750FF1027608031C760FF202F0
:1005E200760DA004201CF72A7D14022B7408F00754
:1005F20075080318750FF10776080318760AF207D3
:100602007D10FA031F307A05031DE02A7B1B7D1C37
:10061200292B0310F00DF10DF20DA00D7408F0025C
:100622007508031C750FF1027608031C760FF2029F
:10063200760D20040139FD070318FC0A0319F80A94
:10064200031D292BF80CFC0CFD0CF30A0319392BA2
:10065200FA1FF8137808F2007C08F1007D08F00018
:1006620000303E2B01302B213E2B023036203E2B18
:0E06720004301A203E2B08302A200000080019
:100680003C30831203139F05C0309F004508F000E3
:10069000F00D7010F00D701070089F0483169F17F6
:1006A00083121F1423219F149F1C582B0000542BCE
:1006B0001F101E08F100F00183161E08F004003020
:0406C000F104080039
:1006C40083120313FB017308031D77080319B92B65
:1006D40072087606FA007708F3077E30031C762B3F
:1006E400F3020318BC2B792BF302031CBF2B7208F3
:1006F400F8007108FC007008FD00F817F6170310E5
:10070400F201F101F0011830A0007D1C932B740854
:10071400F00775080318750FF10776080318760FAC
:10072400F207F20CF10CF00CF80CFC0CFD0C0310AD
:10073400A00B872BF21BA32BF80DF00DF10DF20D7E
:10074400F3037B1B701CB52BF81FB52BF00A0319A0
:10075400F10A0319F20A031DB52BF20CF10CF00C8B
:10076400F30A0319BC2BFA1FF2130030C12B01301A
:100774003620C12B02301A20C12B04302A2000005D
:0207840008006B
:10078600831203137008F8007108F000F101F201FA
:10079600F301FB01FC019630F300FA017008F10049
:0C07A6007808F000F801F201972008002C
:1007B20083218A110A128000840AAD0A0319AE0A43
:0807C200F003031DD92B080010
:1007CA00F72B803083120313C5000A2CC030C500F2
:1007DA000A2C9430C5000A2CD430C5000A2C80306B
:1007EA00C5000A2C831203134508013A0319E62BA4
:1007FA004508023A0319EB2B4508033A0319EE2B75
:10080A004508043A0319F12BF42B4603F000450876
:10081A00F0077008C5007008D300E3202C10C80147
:10082A0048084707840000080319232C480847078B
:10083A0084000008CE002E21C80A152C2C140800AA
:10084A0083160313081188100812881208138813D4
:10085A0083120811881088130813881208120320BB
:10086A0003200320881608160815172008110320EC
:10087A00081517200811032008151720081103204E
:10088A000812081517200811032008151720081147
:10089A0088128817081517200811032088130816CC
:1008AA000815172008110812081517200811032027
:1008BA000815172008110816081517200811032013
:1008CA00081208151720081188170817881608161D
:0C08DA0008151720081103202C1408003A
:0C08E600831203138030F6068A210800FC
:1008F20083120313CA01CB014508CC004608CD0080
:1009020080304606F00080307002031D8A2C0030D1
:1009120045020318982C0130CA000030CB0045086C
:10092200003CCC004608031C013ECD01CD024C0820
:10093200CE004D08CF004708D00036210630C8004F
:100942000030C9004908003C031DA92C4808003C9E
:100952000318C42C48084707F20001304802F0008F
:100962000030031C013E4902F10070084707840071
:100972000008F00072088400700880000130C8028C
:10098200031CC903A32C47088400203080004A08B6
:100992004B040319E22CC801C90148084707840027
:1009A2000008203A031DD92CC80A0319C90ACE2C03
:1009B2000130C802031CC9034808470784002D30D0
:0409C20080000800A9
:1009C600523083120313A1006530A2007330A300D6
:1009D6003A30A400A5015430A6006530A7006D305A
:1009E600A8007030A9003A30AA00AB01C1308316C6
:1009F6009F0025240C30D300E3200130C5000130D0
:100A0600C6002630C700E5230230C5000130C60007
:100A16002130C700E523C501402370088312AF00CB
:100A26007108B000C3232330F400DB30F5007930C1
:100A3600F6007C30F70062232A227008C500710890
:100A4600C6003130C70079240130C5000530C60024
:100A56003130C700E5230130C500402370088312FA
:100A6600AF007108B000C323E030F4008030F50019
:100A76004330F6008430F70062237008C100710825
:100A8600C2007208C3007308C4002F08F0003008C3
:100A9600F100C3230930F4002830F5002030F600B9
:100AA6007730F70062237008F4007108F5007208C9
:100AB600F6007308F7000030F0000030F100203037
:100AC600F2008130F30073247008F4007108F50019
:100AD6007208F6007308F7004108F0004208F100BA
:100AE6004308F2004408F30089222A227008C50050
:100AF6007108C6003130C70079240230C5000530C0
:100B0600C6003130C700E5230230FB000430FC008C
:100B1600BA30FD00FD0B8D2DFC0B8D2DFB0B8D2DA5
:060B260000000E2D952DCC
:04400E00F12F000787
:00000001FF
