:02000000C62B0D
:10000600103083120313FD00FD0B072800000800C3
:0400160000000800DE
:10001A00083083120313FC002330FD00FD0B132864
:06002A00FC0B1328080086
:1000300083120313F801F9011030FC00710DF80D63
:10004000F90D7408F8027508031C750FF9020318FE
:1000500030287408F80775080318750FF90703109E
:0A006000F00DF10DFC0B1E28080046
:10006A0083120313EB1B3B2888133C2888176B1B4E
:10007A004028081341280817EB1A452888124628F1
:10008A0088166B1A4A2808124B28081642184F2855
:10009A0088145028881008150B200811EB195728C6
:1000AA008813582888176B195C2808135D280817C5
:1000BA00EB1861288812622888166B1866280812BD
:1000CA006728081642186B2888146C2888100815A7
:1000DA000B200811421C73280D20742803200800E5
:0E00EA00F201F101F001F801F301003008000D
:0800F800FA1FF21300300800AA
:100100007B15FB1F8A280130F300F201F101F00199
:08011000FA0DF20CFF300800AB
:0E0118008312031341088A0040088200080089
:1001260083120313E901053069020318A12869083F
:100136006807840020308000E90A96286908680765
:1001460084008001E90369086807EA000A30F400C0
:10015600F5016608F0006708F10018207808F0003D
:100166007908F1003030F0076A08840070088000D2
:100176000A30F400F5016608F0006708F10018205F
:100186007008E6007108E70000307106031DCD28EF
:1001960000307006031DD028D228E903A6280800DF
:1001A600A0017208031DE8287108F2007008F1002A
:1001B600F001A0157208031DE8287108F200F1018C
:1001C600A011201672080319F6282008F302031D51
:1001D600031CFA280310F21BFE28F00DF10DF20D98
:1001E600F30BEE28FA280130FC00752001290230B5
:0E01F600FC00802001290430FC007C20080061
:100204007B14FB1F0D29F201FA1FFF30F200F100ED
:0A021400F000FA0DF20CFF300800B4
:0E021E00073083120313FD00FD0B13290800A7
:10022C008312031342106608EB00352042140800B9
:10023C0083120313FB01FA01F9018030F800F10C71
:10024C00F00C031C32297408F90775080318750F94
:10025C00FA070318FB0A0310F01F3A297408FA076F
:10026C0075080318750FFB07FB0CFA0CF90CF80C4E
:10027C00031C25297B08F3007A08F2007908F100A9
:06028C007808F0000800F4
:10029200831603131208013EF000F1010318F10A5C
:1002A20083125D08F400F5011E210630F200700889
:1002B200F4007108F500720803196429F50CF40CB6
:1002C200F513FF3E5D290430F1007408F000710857
:1002D20003196F29F00D7010FF3E69298312031371
:1002E20030307005F3007408F0007508F100F10C6D
:1002F200F00CF113F10CF00CF113700895000F30B3
:08030200970573089704080039
:10030A0083120313E201E3015D08E4005E08E500DD
:10031A0080305E06F00080307002031D962900309E
:10032A005D020318A4290130E2000030E3005D08F1
:10033A00003CE4005E08031C013EE501E502640896
:10034A00E6006508E7005F08E80093200630E00051
:10035A000030E1006108003C031DB5296008003C3B
:10036A000318D02960085F07F20001306002F0002C
:10037A000030031C013E6102F10070085F0784002F
:10038A000008F00072088400700880000130E00262
:10039A00031CE103AF295F08840020308000620853
:1003AA0063040319EE29E001E10160085F07840094
:1003BA000008203A031DE529E00A0319E10ADA29AF
:1003CA000130E002031CE10360085F0784002D305E
:0403DA008000080097
:1003DE0083120313FA017308031D7A147708031DA1
:1003EE00FA147A0803193B2A033A0319062A7A18D3
:1003FE00032AF61F392A372AF21F372A392A72089A
:10040E008039FA00F21376088039F6137A0603194A
:10041E00142A7A080319372A392A7708730203191E
:10042E001B2A031C2F2A332A760872020319222A4A
:10043E00031C2F2A332A750871020319292A031C5B
:10044E002F2A332A7408700203193B2A0318332A01
:10045E00FA080319392A372AFA080319372A392ACA
:10046E000314080003100800031403150800080005
:10047E00831603130711831212150C30970408000C
:10048E00831603138710831212150C309D04080077
:10049E00831603131208013EF000F1010318F10A4E
:1004AE0083125D08F400F5011E210630F20070087B
:1004BE00F4007108F500720803196A2AF50CF40CA1
:1004CE00F513FF3E632A0430F1007408F000710842
:1004DE000319752AF00D7010FF3E6F2A8312031355
:1004EE0030307005F3007408F0007508F100F10C5F
:1004FE00F00CF113F10CF00CF11370089B000F309F
:08050E009D0573089D0408001F
:0C051600831203139B011D129D120800AC
:1005220083160313081188100812881208138813FF
:1005320083120811881088130813881208120D20DC
:100542000D200D208816081608150B2008110D2005
:1005520008150B2008110D2008150B2008110D207D
:10056200081208150B2008110D2008150B20081180
:100572008812881708150B2008110D2088130816F9
:1005820008150B200811081208150B2008110D2060
:1005920008150B200811081608150B2008110D204C
:1005A200081208150B200811881708178816081654
:0C05B20008150B2008110D204214080051
:0C05BE0083120313950117129712080016
:1005CA008C208A110A128000840AC00A0319C10AFF
:0805DA00F003031DE52A0800EF
:1005E200032B803083120313DD00162BC030DD0095
:1005F200162B9430DD00162BD430DD00162B803004
:10060200DD00162B831203135D08013A0319F22A47
:100612005D08023A0319F72A5D08033A0319FA2A18
:100622005D08043A0319FD2A002B5E03F0005D0801
:10063200F0077008DD007008EB0035204210E00181
:1006420060085F078400000803192F2B60085F070A
:1006520084000008E6001621E00A212B421408005B
:1006620083120313FB01730803196E2B7208FA003D
:10067200F2178E30F302F31F712BF309F30A0830DD
:100682007302031C542BF300F10D7208F100F20106
:1006920008307302031C542BF300F10DF1017308AF
:1006A200031D03105C2B730803195C2B0310F20C5F
:1006B200F10CF30B572B7B1B711C662B031C662B57
:1006C200F10A0319F20AF21B7D2BFA1F802BF209A1
:1006D200F109F10A0319F20A802BF201F101802BD0
:1006E2007B14FB1F832BF201FA1F832BFF30F200D6
:1006F200F100FA0DF20C832B0130FC00852B003047
:10070200FC00852BFF30FC00FC080319892B022119
:0A0712007108F0007208F100080001
:10071C003C30831203139F05C0309F005D08F0002E
:10072C00F00D7010F00D701070089F0483169F1759
:10073C0083121F140F219F149F1CA62B0000A22BA9
:10074C001F101E08F100F00183161E08F004003083
:04075C00F10408009C
:10076000831203137008F8007108F000F101F20120
:10077000F301FB01FC019630F300FA017008F1006F
:0C0780007808F000F801F201D320080016
:10078C00203083120313A1003330A2003930A300B0
:10079C002E30A4003230A5003130A6002530A70041
:1007AC00A8013530A9003030AA002530AB00AC01CF
:1007BC002030AD003330AE003930AF002E30B000F9
:1007CC003230B1003130B2002530B300B4012030EA
:1007DC00B5004D30B6002030B7006930B8003A3063
:1007EC00B900BA012030BB004D30BC002030BD0038
:1007FC006430BE00BF0191220C30EB00352001307B
:10080C00DD000130DE003530DF00F1220230DD008A
:10081C000130DE003B30DF00F122831681018312B0
:10082C0012149214F93083169200DF223F22DD015C
:10083C00492112149214F930831692008B2247220C
:10084C00DD014F22DD018E23B0237008D300710827
:10085C00D4007208D5007308D6000130DD008E2359
:10086C0002308312DD008E23B0237008D70071088C
:10087C00D8007208D9007308DA005308F000540845
:10088C00F1005508F2005608F30031237008DD0022
:10089C007108DE004330DF0085210130DD000630B9
:1008AC00DE004330DF00F1228230FC00DD30FD0041
:1008BC00FD0B5E2CFC0B5E2C000000005708F000BA
:1008CC005808F1005908F2005A08F3003123700857
:1008DC00DD007108DE004330DF0085210230DD00D1
:1008EC000630DE004330DF00F1220230FB008630A0
:1008FC00FC009930FD00FD0B812CFC0B812CFB0BBB
:10090C00812C0030F4000030F5005230F6008730B6
:10091C00F7005308F0005408F1005508F20056088F
:10092C00F300EF210130031C0030F00070080319B4
:10093C00C92C5708F4005808F5005908F6005A0855
:10094C00F7000030F0000030F1000C30F200853080
:10095C00F300EF210130031C0030F0007008031984
:10096C00C92C6430DB001930DC000230DD000130B2
:10097C00DE002130DF00F1225B08DD0049215C083C
:10098C00DD004F224E2D5308F4005408F500550895
:10099C00F6005608F7000030F0000030F1000C3083
:1009AC00F2008530F300EF210130031C0030F00021
:1009BC00700803190B2D0030F4000030F500523094
:1009CC00F6008730F7005708F0005808F100590876
:1009DC00F2005A08F300EF210130031C0030F00044
:1009EC00700803190B2D1930DB006430DC00023069
:1009FC00DD000130DE002D30DF00F1225B08DD0070
:100A0C0049215C08DD004F224E2D0030F4000030EF
:100A1C00F5005230F6008730F7005308F000540808
:100A2C00F1005508F2005608F300EF210130031CC9
:100A3C000030F000700803194E2D0030F400003027
:100A4C00F5005230F6008730F7005708F0005808D0
:100A5C00F1005908F2005A08F300EF210130031C91
:100A6C000030F000700803194E2D7F30DB007F3012
:100A7C00DC000230DD000130DE002930DF00F12225
:100A8C005B08DD0049211730DC001730DD004F22F8
:040A9C00282C4F2D86
:04400E00F12F000787
:00000001FF
