:02000000C02915
:10000600103083120313FD00FD0B072800000800C3
:10001600083083120313FC002330FD00FD0B11286A
:06002600FC0B112808008C
:04002C0000000800C8
:1000300083120313EA1B1E2888131F2888176A1BC4
:100040002328081324280817EA1A282888122928A0
:1000500088166A1A2D2808122E28081663183228C6
:10006000881433288810081516200811EA193A2830
:1000700088133B2888176A193F2808134028081757
:10008000EA1844288812452888166A184928081250
:100090004A28081663184E2888144F288810081517
:1000A00016200811631C56280B205728032008002F
:1000B0008312031363106908EA0018206314080010
:1000C00083120313FB01FA01F9018030F800F10CEF
:1000D000F00C031C74287408F90775080318750FD1
:1000E000FA070318FB0A0310F01F7C287408FA07AC
:1000F00075080318750FFB07FB0CFA0CF90CF80CCC
:10010000031C67287B08F3007A08F2007908F100E5
:060110007808F000080071
:0E0116008312031362088A0061088200080049
:0C012400831203139B011D129D120800A2
:0C013000831203139501171297120800A8
:10013C00831603131208013EF000F1010318F10AB3
:10014C0083126508F400F50160200630F200700897
:10015C00F4007108F50072080319B928F50CF40CB9
:10016C00F513FF3EB2280430F1007408F00071085A
:10017C000319C428F00D7010FF3EBE288312031320
:10018C0030307005F3007408F0007508F100F10CC4
:10019C00F00CF113F10CF00CF11370089B000F3004
:0801AC009D0573089D04080085
:1001B400831603131208013EF000F1010318F10A3B
:1001C40083126508F400F50160200630F20070081F
:1001D400F4007108F50072080319F528F50CF40C05
:1001E400F513FF3EEE280430F1007408F0007108A6
:1001F40003190029F00D7010FF3EFA28831203132F
:1002040030307005F3007408F0007508F100F10C4B
:10021400F00CF113F10CF00CF113700895000F3091
:08022400970573089704080018
:10022C008B208A110A128000840AE10A0319E20A5F
:08023C00F003031D1629080060
:100244003429803083120313E5004729C030E500C8
:1002540047299430E5004729D430E5004729803008
:10026400E5004729831203136508013A031923297A
:100274006508023A031928296508033A03192B294A
:100284006508043A03192E2931296603F00065082C
:10029400F0077008E5007008EA0018206310E80110
:1002A400680867078400000803196029680867075D
:1002B40084000008E9005820E80A52296314080061
:1002C400831603138710831212150C309D04080043
:1002D4008316031308118810081288120813881350
:1002E40083120811881088130813881208120B202F
:1002F4000B200B20881608160815162008110B2051
:100304000815162008110B200815162008110B20BB
:1003140008120815162008110B20081516200811BC
:10032400881288170815162008110B208813081640
:1003340008151620081108120815162008110B209C
:1003440008151620081108160815162008110B2088
:100354000812081516200811881708178816081699
:0C0364000815162008110B206314080077
:10037000831603130711831212150C30970408001B
:10038000AC2283120313E4016A210C30EA00182026
:1003900083168101831212149214F930831692008D
:1003A0009820B821E501DA2012149214F93083164E
:1003B000920092206221E5019E2083160714871582
:1003C000031788018901EF30860083120313861218
:1003D0000613861306126A210C30EA001820071C47
:1003E0000A2A871D0A2AFF30E400FF30E500DA20E0
:1003F0006408E5009E200130E5000130E60052303F
:10040000E70022210230E5000130E6004130E7003C
:100410002221422A07181D2A871D1D2AFF30E400C9
:10042000E501DA206408E5009E200130E500013096
:10043000E6002030E7002221422A071C302A8719D3
:10044000302AE401FF30E500DA206408E5009E2050
:100450000130E5000130E6003230E7002221422A77
:10046000E501DA20E5019E200130E5000130E600DB
:10047000A030E70022210230E5000130E600B13073
:08048000E7002221EF29432AC5
:1005580020308400413083120313F0004930E10059
:100568000230E2001621A030840022300313F0008C
:0C0578008A30E1000230E2001621080089
:1004920020344734493452344F34203469347A3466
:1004A200713475346934653472346434613420349F
:0404B20020340034BE
:1004B60020344734493452344F342034443465347C
:0E04C600723465346334683461342034003499
:1004D40020344D3469347A34713475346934653474
:1004E400723464346F34203431343034303425344D
:0204F4000034D2
:1004F60020344D346434653472346534633468347E
:0E050600613420343134303430342534003444
:1005140020342034203420342034413450344134C5
:100524004734413444344F3420342034203420348C
:02053400003491
:100536002034203420342034203420342034203415
:100546002034203420342034203420342034203405
:0205560000346F
:04400E00F12F000787
:00000001FF
