:02000000BA2A1A
:0E000600213083120313FD00FD0B07280800B4
:100014000F3083120313FC004730FD00FD0B102842
:0A002400FC0B10280000000008008B
:06002E00000000000800C4
:1000340083120313F801F9011030FC00710DF80D5F
:10004400F90D7408F8027508031C750FF9020318FA
:1000540032287408F80775080318750FF907031098
:0A006400F00DF10DFC0B2028080040
:10006E0083120313EE1B3D2888133E2888176E1B40
:10007E004228081343280817EE1A472888124828E2
:10008E0088166E1A4C2808124D2808164318512847
:10009E00881452288810081517200811EE195928AF
:1000AE0088135A2888176E195E2808135F280817B8
:1000BE00EE1863288812642888166E1868280812AD
:1000CE006928081643186D2888146E28881008159C
:1000DE0017200811431C75280A20762803200800D3
:0800EE00FA1FF21300300800B4
:0E00F600F201F101F001F801F3010030080001
:100104007B15FB1F8C280130F300F201F101F00193
:08011400FA0DF20CFF300800A7
:0E011C008312031345088A004408820008007D
:10012A008312031343106908EE00372043140800B2
:10013A000E3083120313FD00FD0BA12800000800F6
:10014A00A0017208031DBA287108F2007008F100B4
:10015A00F001A0157208031DBA287108F200F10116
:10016A00A011201672080319C8282008F302031DDB
:10017A00031CCC280310F21BD028F00DF10DF20D50
:10018A00F30BC028CC280130FC007B20D328023096
:0E019A00FC008220D3280430FC0077200800EF
:1001A80083120313EC0105306C020318E2286C0873
:1001B8006B07840020308000EC0AD7286C086B0796
:1001C80084008001EC036C086B07ED000A30F40032
:1001D800F5016908F0006A08F1001A207808F000B3
:1001E8007908F1003030F0076D088400700880004D
:1001F8000A30F400F5016908F0006A08F1001A20D5
:100208007008E9007108EA0000307106031D0E2924
:1002180000307006031D11291329EC03E728080094
:100228007B14FB1F1F29F201FA1FFF30F200F100B7
:0A023800F000FA0DF20CFF30080090
:1002420083120313E501E6016008E7006108E80094
:1002520080306106F00080307002031D32290030C8
:100262006002031840290130E5000030E600600812
:10027200003CE7006108031C013EE801E802670850
:10028200E9006808EA006208EB00D4200630E300C7
:100292000030E4006408003C031D51296308003C5F
:1002A20003186C2963086207F20001306302F00050
:1002B2000030031C013E6402F100700862078400F2
:1002C2000008F00072088400700880000130E30228
:1002D200031CE4034B296208840020308000650877
:1002E200660403198A29E301E401630862078400B2
:1002F2000008203A031D8129E30A0319E40A76293A
:100302000130E302031CE4036308620784002D301A
:04031200800008005F
:100316003C30831203139F05C0309F006008F00035
:10032600F00D7010F00D701070089F0483169F1763
:1003360083121F149D209F149F1CA32900009F2930
:100346001F101E08F100F00183161E08F00400308D
:04035600F1040800A6
:10035A00831203137008F8007108F000F101F2012A
:10036A00F301FB01FC019630F300FA017008F10079
:0C037A007808F000F801F201A52008004E
:1003860083120313FB0173080319002A7208FA008B
:10039600F2178E30F302F31F032AF309F30A08302B
:1003A6007302031CE629F300F10D7208F100F20155
:1003B60008307302031CE629F300F10DF1017308FE
:1003C600031D0310EE2973080319EE290310F20C1E
:1003D600F10CF30BE9297B1B711CF829031CF82986
:1003E600F10A0319F20AF21B0F2AFA1F122AF2095E
:1003F600F109F10A0319F20A122AF201F101122A8D
:100406007B14FB1F152AF201FA1F152AFF30F20092
:10041600F100FA0DF20C152A0130FC00172A003003
:10042600FC00172AFF30FC00FC0803191B2A1421C4
:0A0436007108F0007208F1000800E0
:1004400083160313081188100812881208138813E2
:1004500083120811881088130813881208120A20C2
:100460000A200A20881608160815172008110A20E5
:100470000815172008110A200815172008110A204E
:1004800008120815172008110A200815172008114E
:10049000881288170815172008110A2088130816D3
:1004A00008151720081108120815172008110A202E
:1004B00008151720081108160815172008110A201A
:1004C000081208151720081188170817881608162B
:0C04D0000815172008110A20431408002A
:1004DC008E208A110A128000840AC40A0319C50AE4
:0804EC00F003031D6E2A080055
:1004F4008C2A803083120313E0009F2AC030E0006E
:100504009F2A9430E0009F2AD430E0009F2A803054
:10051400E0009F2A831203136008013A03197B2A1F
:100524006008023A0319802A6008033A0319832AEF
:100534006008043A0319862A892A6103F0006008D6
:10054400F0077008E0007008EE0037204310E30164
:1005540063086207840000080319B82A6308620765
:1005640084000008E9009520E30AAA2A431408003D
:10057400203083120313A1004D30A2002030A300C9
:100584006430A4006530A5007230A6006530A70071
:100594002030A8003A30A9002030AA002030AB0057
:1005A4002030AC002030AD002030AE002030AF0051
:1005B4002030B000B1012030B2004D30B300203003
:1005C400B4006930B5007A30B6007130B7007530C8
:1005D400B8006930B9003A30BA002030BB0020308E
:1005E400BC002030BD002030BE002030BF002030D1
:1005F400C0002030C100C201DE01DF0120220C3026
:10060400EE0037200130E0000130E1003230E2003A
:100614007A220230E0000130E1002130E2007A2247
:10062400E0018B21AD217008D6007108D700720853
:10063400D8007308D9000130E0008B210230831206
:10064400E0008B21AD217008DA007108DB0072082C
:10065400DC007308DD005608F0005708F100580864
:10066400F2005908F300C3217008E0007108E100AA
:100674004630E20021210130E0000A30E10046303A
:10068400E2007A220230FB000430FC00BA30FD00A4
:10069400FD0B4A2BFC0B4A2BFB0B4A2B00005A0880
:1006A400F0005B08F1005C08F2005D08F300C32170
:1006B4007008E0007108E1004630E20021210230B8
:1006C400E0000A30E1004630E2007A228230FC0089
:1006D400DD30FD00FD0B6C2BFC0B6C2B00000000CF
:0406E400122B732B37
:04400E00F22F000786
:00000001FF
