:020000005A2B79
:0400060000000800EE
:10000A00083083120313FC002330FD00FD0B0B287C
:06001A00FC0B0B2808009E
:10002000103083120313FD00FD0B1428000008009C
:1000300083160313CA1B1F288312881121288312D9
:10004000881583164A1B2728831208112928831232
:1000500008158316CA1A2F28831288103128831294
:10006000881483164A1A37288312081039288312F5
:1000700008146D183D2808163E280812881603201B
:1000800088128316CA1947288312881149288312B7
:10009000881583164A194F28831208115128831294
:1000A00008158316CA1857288312881059288312F6
:1000B000881483164A185F28831208106128831257
:1000C00008146D186528081666280812881603207B
:0E00D00088126D1C6D2805206E281020080077
:1000DE00A53083120313FD00FD0B732800000000F2
:0200EE00080008
:1000F000831203136D1083164908CA0018206D146B
:020100000800F5
:100102008316031388120812081088100811881128
:10011200831288120812881108118810081005200D
:10012200052005208814081488160320881205204B
:1001320088160320881205208816032088120520BD
:1001420008108816032088120520881603208812BA
:100152008810881588160320881205208811081433
:10016200881603208812081088160320881205209A
:100172008816032088120814881603208812052086
:100182000810881603208812881508158814081488
:0C01920088160320881205206D14080058
:10019E00831203136E0803178D0083168C130C1431
:0801AE0083120C08F0000800A8
:1001B60083120313EF0183164608F1000130F000A5
:1001C60071080319EA28F00D7010FF3EE428700844
:1001D6008312EE008316450884000008F0057008B7
:1001E6000130031D0030F0004808F00603191729F6
:1001F6004708003C031804296F206F208316C703A5
:10020600FB284508840083126E080005F00070087C
:100216000130031D0030F00083164808F00603196C
:100226001729FF308312EF0083126F08F0000800D1
:0E023600831203136C088A006B088200080014
:10024400831603178C1C2829000022298312031308
:100254006E0803178D0003136F0803178C008316B1
:100264008C130C150B08F0008B1355308D00AA303D
:100274008D008C14F01B40298B1341298B170C1112
:02028400080070
:100286005529803083160313C5006829C030C50080
:1002960068299430C5006829D430C50068298030A3
:1002A600C5006829831603134508013A0319442932
:1002B6004508023A031949294508033A03194C2906
:1002C6004508043A03194F2952294603F000450808
:1002D600F0077008C5007008CA0018206D10EE01FE
:1002E6006E088316470784000008031984298312C1
:1002F6006E088316470784000008C9007820EE0AB6
:08030600732983126D14080035
:10030E00333083120313EE00CF2070080313A400C2
:10031E00A5013430EE00CF2070080313A200A30114
:10032E003530EE00CF2070080313A000A101363047
:10033E00EE00CF2070080313A700A8012408E800E0
:0E034E002208E9002008EA002708EB0008005A
:10035C00023083160313C50083124B088316C600A4
:10036C004730C70043214B08323EEE003908EF00FE
:04037C002221080032
:10038000013083120313860006308316C500043043
:10039000C6001430C7000130C800DB207008031904
:1003A000D7290130A6000130B900CB0A042A063053
:1003B0008316C5000530C6001430C7000130C800E0
:1003C000DB2070080319EA290230A6000230B900C8
:1003D000CB0A042A06308316C5000630C600143046
:1003E000C7000130C800DB2070080319FB29033067
:1003F000B900CB0A042A6830FC00E430FD00FD0B94
:10040000FF29FC0BFF29000002308600063083160E
:10041000C5000430C6003230C7000130C800DB2000
:1004200070080319172A0430B900CB0A422A063093
:100430008316C5000530C6001430C7000130C8005F
:10044000DB2070080319282A0530B900CB0A422A9C
:1004500006308316C5000630C6001430C7000130D0
:10046000C800DB2070080319392A0630B900CB0A0E
:10047000422A6830FC00E430FD00FD0B3D2AFC0BF5
:100480003D2A00000430860006308316C500043083
:10049000C6001430C7000130C800DB207008031903
:1004A000552A0730B900CB0A762A06308316C500D4
:1004B0000530C6001430C7000130C800DB207008CA
:1004C0000319662A0830B900CB0A762A063083164B
:1004D000C5000630C6001430C7000130C800DB205C
:1004E00070080319762A0930B900CB0A6830FC007D
:1004F000E430FD00FD0B7A2AFC0B7A2A000008305C
:10050000860006308316C5000430C6001430C700CC
:100510000130C800DB2070080319922A0A30B900A4
:10052000CB0AB22A06308316C5000530C600143047
:10053000C7000130C800DB2070080319A22AB901E6
:10054000CB0AB22A06308316C5000630C600143026
:10055000C7000130C800DB2070080319B22A0C3034
:10056000B900CB0A6830FC00E430FD00FD0BB62A70
:08057000FC0BB62A0000080094
:10057800013083160313CA00182001308316C50002
:100588000130C6003A30C7004321023087000630E8
:10059800FB001330FC00AD30FD00FD0BD12AFC0B35
:0C05A800D12AFB0BD12A00000000080043
:1005B400013083160313CA00182001308316C500C6
:1005C4000130C600831229088316C700432108009E
:1005D400013083160313CA00182001308316C500A6
:1005E4000130C6003330C7004321013087000800C2
:1005F400013083160313C5000130C60083124D0871
:100604008316C700432102308316C5000130C6009B
:0C06140083124C088316C7004321080025
:10062000013083160313CA00182001308316C50059
:100630000130C6002A30C70043210430870008007B
:100640001B218A110A128000840AEB0A0319EC0AA2
:08065000F003031D202B08003C
:100658000630831603139F008701831287018316D0
:100668008801403083128800F03083168600831298
:100678008601CB01B901A601812001308316CA0089
:0C06880018200C308316CA00182008004F
:10069400013083160313CA00182001308316C500E5
:1006A4000130C600831246088316C70043210800A0
:1006B4009A242C23FA228721C0212608013A031DFB
:1006C400BC2BDA22CB01B901A60104304B0203187A
:1006D4009D2BC0214B08C13E8400390880004B0883
:1006E400003C03189C2B4B08C13E84000008F10019
:1006F4004B08673E840071080006031D8C2B0230F2
:100704008316C50083124B088316C6004930C70000
:100714004321672BEA220630FB001330FC00AD3086
:10072400FD00FD0B932BFC0B932BFB0B932B000079
:1007340000005B2B672BA6010330FB008A30FC0012
:100744005530FD00FD0BA42BFC0BA42BFB0BA42BA1
:100754000000000010231030FB003930FC000D3085
:10076400FD00FD0BB32BFC0BB32BFB0BB32B0000D9
:1007740000005B2B2608023A031D2A2CDA22CB0147
:10078400B901A60104304B020318FA2BC0214B080F
:10079400C13E8400390880004B08003C0318F92B43
:1007A4004B08C13E84000008F1004B08673E8400FA
:1007B40071080006031DE92B02308316C50083125D
:1007C4004B088316C6004430C7004321C42BEA22D9
:1007D4000630FB001330FC00AD30FD00FD0BF02BA8
:1007E400FC0BF02BFB0BF02B000000005B2BC42B4D
:1007F400A6010630FB001330FC00AD30FD00FD0BFC
:10080400012CFC0B012CFB0B012C000000004A23E3
:10081400CB01B901A6018312031304304B02031860
:100824001A2CC0214B08003C0318192CAE210D2CA6
:100834000330FB008A30FC005530FD00FD0B202CFA
:10084400FC0B202CFB0B202C00000000BC225B2B9B
:040854005E2B2B2CC0
:1009340020308400473083120313F0003130EB0081
:100944000430EC002023A03084002130F000783003
:0A095400EB000430EC002023080043
:04086200003400342A
:040866000034003426
:04086A000034003422
:02086E00003454
:04087000003400341C
:02087400B3349B
:10087600613462347234693465346E3464346F348E
:0208860000343C
:0C0888006534723472346F347234003402
:0208940000342E
:100896006734753461347234643461346E3464346C
:0408A6006F34003477
:0408AA002A340034B8
:0208AE004E34C6
:0408B0002A340034B2
:0408B4002A340034AE
:0208B80000340A
:0208BA00A03468
:0208BC005F34A7
:1008BE004E345534453456344134203443344F3459
:1008CE004E34543452344134533445344E3441341E
:0208DE000034E4
:1008E00031342E3441344234523449345234003499
:1008F00032342E344E345534453456344134203459
:1009000043344F344E3454345234413453344534E8
:060910004E3441340034B6
:1009160053345534203443344F344E3454345234E3
:0C0926004134533445344E344134003425
:02400E004A2F37
