:020000007E2957
:0400060000000800EE
:10000A00103083120313FD00FD0B092800000800BD
:10001A00083083120313FC002330FD00FD0B132864
:06002A00FC0B1328080086
:1000300083120313C61B1E2888131F288817461B0C
:100040002328081324280817C61A282888122928C4
:100050008816461A2D2808122E2808163918322814
:10006000881433288810081503200811C6193A2867
:1000700088133B28881746193F280813402808177B
:10008000C618442888124528881646184928081298
:100090004A28081639184E2888144F288810081541
:1000A00003200811391C56280D2057280520080068
:0E00B000033083120313FD00FD0B5C280800D3
:1000BE008312031339104108C600182039140800A2
:0E00CE00831203133C088A003B0882000800DE
:1000DC0083120313C101C301C4011030C5000430E5
:1000EC00440203189A28F0308600450983168600CE
:1000FC00032003200F3083120605F0007008C200A5
:10010C007008031994284308C10042080319922867
:10011C00C20CC213C10A8B280430C400C50D451093
:0E012C000430C307C40A75284108F00008001B
:10013A006E207008BD000F300605F0000319A728CD
:0A014A005820A0283D08F00008002E
:10015400BC28803083120313BD00CF28C030BD00FB
:10016400CF289430BD00CF28D430BD00CF288030B4
:10017400BD00CF28831203133D08013A0319AB28AD
:100184003D08023A0319B0283D08033A0319B3287D
:100194003D08043A0319B628B9283E03F0003D0887
:1001A400F0077008BD0039147008C6001820391013
:0A01B4003F08C600182039140800A7
:1001BE00F128803083120313BD000429C030BD0026
:1001CE0004299430BD000429D430BD0004298030A8
:1001DE00BD000429831203133D08013A0319E028D8
:1001EE003D08023A0319E5283D08033A0319E828A9
:1001FE003D08043A0319EB28EE283E03F0003D08B3
:10020E00F0077008BD007008C60018203910C00134
:10021E0040083F078400000803191D2940083F07C6
:10022E0084000008C1005F20C00A0F29391408009D
:0A023E00FF3083160313860008004A
:1002480067208A110A128000840ABB0A0319BC0AB3
:08025800F003031D2429080036
:1002600083160313081188100812881208138813C4
:1002700083120811881088130813881208120D20A1
:100280000D200D20881608160815032008110D20D2
:100290000815032008110D200815032008110D2052
:1002A00008120815032008110D2008150320081155
:1002B000881288170815032008110D2088130816C6
:1002C00008150320081108120815032008110D2035
:1002D00008150320081108160815032008110D2021
:1002E0000812081503200811881708178816081621
:0C02F0000815032008110D203914080027
:1002FC00703083120313A0007530A1007330A2007C
:10030C006830A3002030A4007430A5006830A6002B
:10031C006530A7002030A8006230A9007530AA0013
:10032C007430AB007430AC006F30AD006E30AE008A
:10033C003A30AF00B0014430B1006130B2006E30E1
:10034C00B3006930B4006530B5006C30B600B7014D
:10035C001F2130210C30C60018200130BD000130A7
:10036C00BE002030BF00DF200230BD000130BE00D7
:10037C003130BF00DF200530FB009130FC00CF3066
:10038C00FD00FD0BC729FC0BC729FB0BC72900007F
:10039C000000B8011E3038020318E7291C30C600D3
:1003AC0018200B30FB002630FC005D30FD00FD0BEF
:1003BC00DD29FC0BDD29FB0BDD2900000000B80A50
:1003CC00D0290130C6001820BA019D207008BA004F
:1003DC0070080319EB29222A4430BA00622A4130F2
:1003EC00BA00622A4E30BA00622A4930BA00622A38
:1003FC004530BA00622A4C30BA00622A3130BA0059
:10040C00622A3230BA00622A3330BA00622A34309F
:10041C00BA00622A3530BA00622A3630BA00622A33
:10042C003730BA00622A3830BA00622A3930BA0042
:10043C00622A7E30BA00622A3A08013A0319F2297C
:10044C003A08023A0319F5293A08033A0319F8292C
:10045C003A08043A0319FB293A08053A0319FE290C
:10046C003A08063A0319012A3A08073A0319042AEA
:10047C003A08083A0319072A3A08093A03190A2ACA
:10048C003A080A3A03190D2A3A080B3A0319102AAA
:10049C003A080C3A0319132A3A080D3A0319162A8A
:1004AC003A080E3A0319192A3A080F3A03191C2A6A
:1004BC003A08103A03191F2A0230BD000130BE0061
:0A04CC003A08BF00AA20EA296A2AB4
:02400E004A2F37
:00000001FF
