:02000000262BAD
:10000600103083120313FD00FD0B072800000800C3
:10001600083083120313FC002330FD00FD0B11286A
:06002600FC0B112808008C
:04002C0000000800C8
:1000300083120313F801F9011030FC00710DF80D63
:10004000F90D7408F8027508031C750FF9020318FE
:1000500030287408F80775080318750FF90703109E
:0A006000F00DF10DFC0B1E28080046
:10006A0083120313CF1B3B2888133C2888174F1B86
:10007A004028081341280817CF1A4528881246280D
:10008A0088164F1A4A2808124B2808162E184F2885
:10009A00881450288810081516200811CF195728D7
:1000AA008813582888174F195C2808135D280817E1
:1000BA00CF1861288812622888164F1866280812F5
:1000CA00672808162E186B2888146C2888100815BB
:1000DA00162008112E1C73280B20742803200800F0
:0E00EA00F201F101F001F801F301003008000D
:0800F800FA1FF21300300800AA
:100100007B15FB1F8A280130F300F201F101F00199
:08011000FA0DF20CFF300800AB
:10011800831203132E104A08CF0035202E1408002E
:0E0128008312031330088A002F08820008009B
:0E013600073083120313FD00FD0B9F28080005
:1001440083120313CD0105304D020318B0284D0866
:100154004C07840020308000CD0AA5284D084C07A8
:1001640084008001CD034D084C07CE000A30F40012
:10017400F5014A08F0004B08F10018207808F00057
:100184007908F1003030F0074E08840070088000D0
:100194000A30F400F5014A08F0004B08F100182079
:1001A4007008CA007108CB0000307106031DDC28FA
:1001B40000307006031DDF28E128CD03B5280800B0
:1001C400A0017208031DF7287108F2007008F100FD
:1001D400F001A0157208031DF7287108F200F1015F
:1001E400A01120167208031905292008F302031D23
:1001F400031C09290310F21B0D29F00DF10DF20D5A
:10020400F30BFD2809290130FC0075201029023068
:0E021400FC00802010290430FC007C20080033
:10022200FB14FB1F1B29FF30F300F200F100F0006A
:08023200FA0DF20CFF30080088
:10023A007B14FB1F2829F201FA1FFF30F200F1009C
:0A024A00F000FA0DF20CFF3008007E
:1002540083120313FB017308031D77080319812913
:1002640072087606FA007708F3077E30031C3E29ED
:10027400F302031884294129F302031C8729720815
:10028400F8007108FC007008FD00F817F617031059
:10029400F201F101F0011830A0007D1C5B29740803
:1002A400F00775080318750FF10776080318760F21
:1002B400F207F20CF10CF00CF80CFC0CFD0C031022
:1002C400A00B4F29F21B6B29F80DF00DF10DF20D67
:1002D400F3037B1B701C7D29F81F7D29F00A031989
:1002E400F10A0319F20A031D7D29F20CF10CF00C3A
:1002F400F30A03198429FA1FF21300308929013003
:1003040075208929023011218929043080200000B8
:020314000800DF
:100316003C30831203139F05C0309F004108F00054
:10032600F00D7010F00D701070089F0483169F1763
:1003360083121F149B209F149F1CA32900009F2932
:100346001F101E08F100F00183161E08F00400308D
:04035600F1040800A6
:10035A0083120313FB01FC01FA0173080319EC2948
:10036A00F2178E30F302F31BBD290319BD29EF29B9
:10037A00F309F30A08307302031CD229F300F10DC2
:10038A007208F100F20108307302031CD229F10D40
:10039A00F1017308031D0310DA2973080319DA2916
:1003AA000310F20CF10CF30BD5297B1B711CE42909
:1003BA00031CE429F10A0319F20AF21BFB29FA1FAA
:1003CA00FE29F209F109F10A0319F20AFE29F201DA
:1003DA00F101FE297B14FB1F012AF201FA1F012AEF
:1003EA00FF30F200F100FA0DF20C012A0130FC0094
:1003FA00032A0030FC00032AFF30FC00FC08031922
:0E040A00072A1D217108F0007208F100080099
:1004180083120313C601C7014108C8004208C90076
:1004280080304206F00080307002031D1D2A003023
:10043800410203182B2A0130C6000030C7004108CA
:10044800003CC8004208031C013EC901C902480813
:10045800CA004908CB004308CC00A2200630C400DB
:100468000030C5004508003C031D3C2A4408003CF8
:100478000318572A44084307F20001304402F000E9
:100488000030031C013E4502F10070084307840058
:100498000008F00072088400700880000130C4026F
:1004A800031CC503362A4308840020308000460810
:1004B80047040319752AC401C50144084307840089
:1004C8000008203A031D6C2AC40A0319C50A612AC8
:1004D8000130C402031CC5034408430784002D30BF
:0404E8008000080088
:1004EC008316031308118810081288120813881336
:1004FC0083120811881088130813881208120B2015
:10050C000B200B20881608160815162008110B2036
:10051C000815162008110B200815162008110B20A1
:10052C0008120815162008110B20081516200811A2
:10053C00881288170815162008110B208813081626
:10054C0008151620081108120815162008110B2082
:10055C0008151620081108160815162008110B206E
:10056C00081208151620081188170817881608167F
:0C057C000815162008110B202E14080092
:10058800D62A803083120313C100E92AC030C10083
:10059800E92A9430C100E92AD430C100E92A803020
:1005A800C100E92A831203134108013A0319C52A35
:1005B8004108023A0319CA2A4108033A0319CD2A05
:1005C8004108043A0319D02AD32A4203F00041080B
:1005D800F0077008C1007008CF0035202E10C40144
:1005E80044084307840000080319022B4408430702
:1005F80084000008CA008C20C40AF42A2E140800BB
:10060800831203137008F8007108F000F101F20179
:10061800F301FB01FC019630F300FA017008F100C8
:0C0628007808F000F801F201E220080060
:1006340094208A110A128000840AAF0A0319B00AAE
:08064400F003031D1A2B08004E
:10064C00543083120313A1006530A2006D30A30057
:10065C007030A4006530A5007230A6006130A70090
:10066C007430A8007530A9007230AA006130AB005C
:10067C003A30AC00AD01C13083169F0076220C30AD
:10068C00CF0035200130C1000130C2002130C30041
:10069C00C422C1018B210423F930F4003130F50060
:1006AC006630F6007C30F7002A21AD217008C100BD
:1006BC007108C2003130C3000C220230C10001307D
:1006CC00C2003130C300C4228230FC00DD30FD009A
:1006DC00FD0B6E2BFC0B6E2B000000004F2B752BB3
:04400E00F12F000787
:00000001FF
