:0200000058287E
:0E0006008312031321088A00200882000800DC
:10001400A53083120313FD00FD0B0E280000000021
:020024000800D2
:1000260083120313A7012308F1000130F0007108C1
:1000360003192128F00D7010FF3E1B287008A6003A
:100046002208840070080005F10071080130031DC4
:100056000030F0002508F006031949282408003C62
:10006600031839280A200A20A4033128220884000C
:1000760026080005F10071080130031D0030F0006C
:100086002508F00603194928FF30A7002708F000C5
:02009600080060
:1000980003208A110A128000840AA00A0319A10AFF
:0800A800F003031D4C280800C1
:1000B000FF30831603138600831286010630A200E8
:1000C0000730A3006430A400A501132070080319B1
:0C00D0006B2806146C2806105E286D28B2
:02400E006A2125
:00000001FF
