:02000000282BAB
:10000600103083120313FD00FD0B072800000800C3
:10001600083083120313FC002330FD00FD0B11286A
:06002600FC0B112808008C
:04002C0000000800C8
:1000300083120313F801F9011030FC00710DF80D63
:10004000F90D7408F8027508031C750FF9020318FE
:1000500030287408F80775080318750FF90703109E
:0A006000F00DF10DFC0B1E28080046
:10006A0083120313CF1B3B2886113C2886154F1B8E
:10007A004028061141280615CF1A45288610462819
:10008A0086144F1A4A2806104B2806142E184F2891
:10009A00061650280612861616208612CF195728D9
:1000AA008611582886154F195C2806115D280615F1
:1000BA00CF1861288610622886144F186628061001
:1000CA00672806142E186B2806166C280612861640
:1000DA00162086122E1C73280B2074280320080071
:0E00EA00F201F101F001F801F301003008000D
:0800F800FA1FF21300300800AA
:100100007B15FB1F8A280130F300F201F101F00199
:08011000FA0DF20CFF300800AB
:10011800831203132E104A08CF0035202E1408002E
:0E0128008312031330088A002F08820008009B
:0E013600073083120313FD00FD0B9F28080005
:1001440083120313CD0105304D020318B0284D0866
:100154004C07840020308000CD0AA5284D084C07A8
:1001640084008001CD034D084C07CE000A30F40012
:10017400F5014A08F0004B08F10018207808F00057
:100184007908F1003030F0074E08840070088000D0
:100194000A30F400F5014A08F0004B08F100182079
:1001A4007008CA007108CB0000307106031DDC28FA
:1001B40000307006031DDF28E128CD03B5280800B0
:1001C400A0017208031DF7287108F2007008F100FD
:1001D400F001A0157208031DF7287108F200F1015F
:1001E400A01120167208031905292008F302031D23
:1001F400031C09290310F21B0D29F00DF10DF20D5A
:10020400F30BFD2809290130FC0075201029023068
:0E021400FC00802010290430FC007C20080033
:10022200FB14FB1F1B29FF30F300F200F100F0006A
:08023200FA0DF20CFF30080088
:10023A007B14FB1F2829F201FA1FFF30F200F1009C
:0A024A00F000FA0DF20CFF3008007E
:1002540083120313FB017308031D77080319812913
:1002640072087606FA007708F3077E30031C3E29ED
:10027400F302031884294129F302031C8729720815
:10028400F8007108FC007008FD00F817F617031059
:10029400F201F101F0011830A0007D1C5B29740803
:1002A400F00775080318750FF10776080318760F21
:1002B400F207F20CF10CF00CF80CFC0CFD0C031022
:1002C400A00B4F29F21B6B29F80DF00DF10DF20D67
:1002D400F3037B1B701C7D29F81F7D29F00A031989
:1002E400F10A0319F20A031D7D29F20CF10CF00C3A
:1002F400F30A03198429FA1FF21300308929013003
:1003040075208929023011218929043080200000B8
:020314000800DF
:10031600831203139F01C0309F0483161F179F1774
:1003260083124108F000F00D7010F00D7010F00D02
:10033600701070089F041F149B201F151F1DA529F0
:100346000000A1291F101E08F100F00183161E08E7
:08035600F0040030F10408007E
:10035E0083120313FB01FC01FA0173080319EE2942
:10036E00F2178E30F302F31BBF290319BF29F129AF
:10037E00F309F30A08307302031CD429F300F10DBC
:10038E007208F100F20108307302031CD429F10D3A
:10039E00F1017308031D0310DC2973080319DC290E
:1003AE000310F20CF10CF30BD7297B1B711CE62901
:1003BE00031CE629F10A0319F20AF21BFD29FA1FA2
:1003CE00002AF209F109F10A0319F20A002AF201D0
:1003DE00F101002A7B14FB1F032AF201FA1F032AE4
:1003EE00FF30F200F100FA0DF20C032A0130FC008E
:1003FE00052A0030FC00052AFF30FC00FC0803191A
:0E040E00092A1D217108F0007208F100080093
:10041C0083120313C601C7014108C8004208C90072
:10042C0080304206F00080307002031D1F2A00301D
:10043C00410203182D2A0130C6000030C7004108C4
:10044C00003CC8004208031C013EC901C90248080F
:10045C00CA004908CB004308CC00A2200630C400D7
:10046C000030C5004508003C031D3E2A4408003CF2
:10047C000318592A44084307F20001304402F000E3
:10048C000030031C013E4502F10070084307840054
:10049C000008F00072088400700880000130C4026B
:1004AC00031CC503382A430884002030800046080A
:1004BC0047040319772AC401C50144084307840083
:1004CC000008203A031D6E2AC40A0319C50A632AC0
:1004DC000130C402031CC5034408430784002D30BB
:0404EC008000080084
:1004F0008316031386120612061086100611861143
:1005000083128612061286110611861006100B2021
:100510000B200B20861406148616162086120B203C
:100520008616162086120B208616162086120B20A1
:1005300006108616162086120B20861616208612A6
:10054000861086158616162086120B208611061434
:1005500086161620861206108616162086120B2086
:1005600086161620861206148616162086120B2072
:100570000610861616208612861506158614061491
:0C0580008616162086120B202E14080090
:10058C00D82A803083120313C100EB2AC030C1007B
:10059C00EB2A9430C100EB2AD430C100EB2A803016
:1005AC00C100EB2A831203134108013A0319C72A2D
:1005BC004108023A0319CC2A4108033A0319CF2AFD
:1005CC004108043A0319D22AD52A4203F000410803
:1005DC00F0077008C1007008CF0035202E10C40140
:1005EC0044084307840000080319042B44084307FC
:1005FC0084000008CA008C20C40AF62A2E140800B5
:10060C00831203137008F8007108F000F101F20175
:10061C00F301FB01FC019630F300FA017008F100C4
:0C062C007808F000F801F201E22008005C
:1006380094208A110A128000840AAF0A0319B00AAA
:08064800F003031D1C2B080048
:10065000543083120313A1006530A2006D30A30053
:100660007030A4006530A5007230A6006130A7008C
:100670007430A8007530A9007230AA006130AB0058
:100680003A30AC00AD01C13083169F0078220C30A7
:10069000CF0035200130C1000130C2002130C3003D
:1006A000C622C1018B2106232330F400DB30F50084
:1006B0007930F6007C30F7002A21AF217008C100A4
:1006C0007108C2003130C3000E220230C100013077
:1006D000C2003130C300C6228230FC00DD30FD0094
:1006E000FD0B702BFC0B702B00000000512B772BA7
:02400E007A3BFB
:00000001FF
