:020000002C2AA8
:10000600103083120313FD00FD0B072800000800C3
:10001600083083120313FC002330FD00FD0B11286A
:06002600FC0B112808008C
:04002C0000000800C8
:1000300083160313DD1B1F288312881321288312C4
:10004000881783165D1B272883120813292883121B
:1000500008178316DD1A2F2883128812312883127D
:10006000881683165D1A37288312081239288312DE
:100070000816831653183F288312881441288312C8
:1000800088100815162008118316DD194A288312D6
:1000900088134C288312881783165D1952288312FF
:1000A00008135428831208178316DD185A28831260
:1000B00088125C288312881683165D1862288312C2
:1000C0000812642883120816831653186A288312AC
:1000D00088146C28831288100815162008118316BE
:0C00E000531C74280B2075280320080016
:1000EC008316031353105C08DD0018208316531479
:0200FC000800FA
:1000FE009128803083160313D800A428C030D8006E
:10010E00A4289430D800A428D430D800A428803055
:10011E00D800A428831603135808013A031980281F
:10012E005808023A031985285808033A03198828F3
:10013E005808043A03198B288E285903F0005808E2
:10014E00F0077008D8007008DD00182083165310D1
:10015E00DB015B085A07840000080319BE285B0800
:10016E005A0784000008DC007620DB0AB0285314FE
:02017E00080077
:1001800083120313FB01FA01F9018030F800F10C2E
:10019000F00C031CD4287408F90775080318750FB0
:1001A000FA070318FB0A0310F01FDC287408FA078B
:1001B00075080318750FFB07FB0CFA0CF90CF80C0B
:1001C000031CC7287B08F3007A08F2007908F100C5
:0601D0007808F0000800B1
:0E01D6008316031352088A00510882000800A5
:1001E4008312031306180429061A0429B230A50041
:1001F400A60102308316D8000130D9002030DA007D
:100204007F204229831286181529061A1529CC3015
:10021400A500A60102308316D8000130D900B13000
:10022400DA007F204229831206192629061A262974
:10023400E630A500A60102308316D8000130D900AB
:100244006B30DA007F204229831286193729061A77
:100254003729FF30A500A60102308316D8000130EB
:10026400D900B630DA007F20422983160230D80044
:100274000130D900CC30DA007F208312A501A60119
:02028400080070
:0C028600831203139B011D129D1208003F
:10029200831603131208013EF000F1010318F10A5C
:1002A2005408F400F501C0200630F2007008F40092
:1002B2007108F500720803196329F50CF40CF513A3
:1002C200FF3E5C290430F1007408F0007108031944
:1002D2006E29F00D7010FF3E682930307005F30072
:1002E2007408F0007508F100F10CF00CF113F10C38
:1002F200F00CF113700895000F30970573089704FE
:020302000800F1
:10030400831603131208013EF000F1010318F10AE9
:100314005408F400F501C0200630F2007008F4001F
:100324007108F500720803199C29F50CF40CF513F7
:10033400FF3E95290430F1007408F0007108031998
:10034400A729F00D7010FF3EA12930307005F3008D
:100354007408F0007508F100F10CF00CF113F10CC5
:10036400F00CF11370089B000F309D0573089D0479
:0203740008007F
:1003760083160313081188100812881208138813AD
:1003860083120811881088130813881208120B208C
:100396000B200B20881608160815162008110B20AE
:1003A6000815162008110B200815162008110B2019
:1003B60008120815162008110B200815162008111A
:1003C600881288170815162008110B20881308169E
:1003D60008151620081108120815162008110B20FA
:1003E60008151620081108160815162008110B20E6
:1003F60008120815162008118817081788160816F7
:0E0406000815162008110B2083165314080049
:10041400831603130711831212150C309704080076
:10042400831603138710831212150C309D040800E1
:10043400EB208A110A128000840AD10A0319D20A15
:08044400F003031D1A2A080051
:0C044C0083120313950117129712080089
:100458003E238316031307148715031788018901A0
:10046800EF308600831203138612061386130612D2
:10047800BB210C30DD001820831681018312121471
:1004880092147C308316920026220A228316D40105
:100498004921121492147C308316920043211222AF
:1004A8008316D40182218312071C722A871D722A9F
:1004B8008316D40149218316D40182210130831681
:1004C800D8000130D900BB30DA007F200230D800D4
:1004D8000130D900A030DA007F20B62A831207182D
:1004E8008A2A871D8A2AF220831203132508831675
:1004F800D40049218316D401822101308316D80003
:100508000130D9003830DA007F20B62A8312071C60
:10051800A12A8719A12AF22083160313D40149219D
:1005280025088316D400822101308316D8000130B3
:10053800D9002730DA007F20B62A8316D401492152
:100548008316D401822101308316D8000130D900E6
:100558004930DA007F200230D8000130D9005A3003
:08056800DA007F20572AB72AB0
:10067C00203084004B3083120313F000BD308316FE
:10068C00D1000230D2001A22A030840011300313A2
:10069C00F00028308316D1000330D2001A226B30C0
:1006AC00840005300313F00039308316D100033079
:1006BC00D2001A22B130840020300313F00008302D
:0C06CC008316D1000330D2001A2208006F
:0A057A0020343734303425340034C7
:04058400003400340B
:1005880020344734493452344F34203449345A34AF
:100598005134553449344534523444344134203488
:0205A80000341D
:1005AA0020344734493452344F34203444344534A7
:1005BA0052344534433448344134203420342034CE
:0205CA000034FB
:1005CC00203420342034203420344134503441340D
:1005DC004734413444344F342034203420342034D4
:0205EC000034D9
:1005EE00203420342034203420342034203420345D
:1005FE00203420342034203420342034203420344D
:02060E000034B6
:0A061000203438343034253400342F
:0A061A00313430343034253400341C
:10062400203420342034203420344534523452349D
:100634004F345234203420342034203420342034B5
:02064400003480
:0A0646002034203430342534003411
:1006500020342034203420342034203420342034FA
:1006600020342034203420342034203420342034EA
:02067000003454
:0A06720020343834353425340034C8
:04400E00F22F000786
:00000001FF
