:02000000A9292C
:10000600410DC80DC90D4408C8024508031C450F1B
:10001600C902C00DC10D0F30CC00410DC80DC90D70
:100026004408401C1C28C8024508031C450FC90289
:100036002128C80745080318450FC907C00DC10D7B
:10004600CC0B102840182D284408C807450803186B
:08005600450FC9070000080076
:10005E00831203134008C100C0010830CC004108D0
:10006E00C40C03183E28CC0B3728C10100340310F2
:10007E004328C40C0318C107C10CC00CCC0B40287C
:02008E00080068
:0C00900083120D088A000C088200080092
:10009C0083124408003A031D5C284508003A031DEE
:1000AC005C28FF30C0007F30C100080083120313AE
:1000BC00CD01C901C80141084004031900344108AD
:1000CC004506CA00CA1BCD09CB01C51F7228C4093D
:1000DC00C509C40A0319C50AC11F7928C009C10979
:1000EC00C00A0319C10A41084504CA00CA1B8E285C
:1000FC0003204B18A128CD1F0034C009C109C00A28
:10010C000319C10AC809C909C80A0319C90A003464
:10011C00C51F9D28C11B99284108C9004008C8006B
:10012C00C101C0018128C101C001C00A0034C1094C
:10013C00C009CB0A7E28C80A0319C90A4408480218
:10014C00031D812845084902031D8128C901C801E6
:10015C00C00A0319C10AC11F81280000FF3408001E
:10016C0083120313CB01CA01C9018030C800C10C32
:10017C00C00C031CCA284408C90745080318450FBE
:10018C00CA070318CB0A0310C01FD2284408CA0799
:10019C0045080318450FCB07CB0CCA0CC90CC80C6F
:1001AC00031CBD284B08C3004A08C2004908C10003
:0601BC004808C000080025
:1001C200E8308312C4000330C5001108C0001208D1
:1001D200C1004E20400895000030C100E830C40044
:1001E2000330C500B62040081102C0004108031CBC
:1001F200013E1202C1006430C4000030C5004E202E
:10020200400894001508C000C101E830C400033062
:10021200C500B6204008110296004108031C013EA9
:10022200120297001408C0006430C4002F20400856
:100232009602031C9703410897020A30C40000305B
:10024200C5001608C0001708C1004E2040089300E0
:100252000A30C4002F2040081602C0000030C1003E
:10026200CC30C00701300318013EC10740088C00A2
:1002720041088D0048208A110A12860005140D30AB
:10028200CC00FB30CD00CD0B4429CC0B442900001F
:10029200000085011308CC3EC00001300318013E66
:1002A200C10040088C0041088D0048208A110A12C2
:1002B200860085140D30CC00FB30CD00CD0B5F29BC
:1002C200CC0B5F290000000085011408CC3EC00061
:1002D20001300318013EC10040088C0041088D0026
:1002E20048208A110A12860005150D30CC00FB3019
:1002F200CD00CD0B7A29CC0B7A29000000008501B4
:100302001508CC3EC00001300318013EC100400870
:100312008C0041088D0048208A110A12860085153A
:100322000D30CC00FB30CD00CD0B9529CC0B95299F
:08033200000000008501080035
:10033A0048208A110A128000840A8C0A03198D0A3D
:08034A00C003031D9D290800FA
:1003520083128E018F01900183168601850183121B
:1003620085010F08910010089200E1208E0A0E0804
:100372000C3A031DCA298E018F0A0319900A10082C
:10038200273A031DC62910300F06031DCA298F0103
:060392009001B229CB2905
:100398003F3406345B344F3466346D347D3407346F
:0403A8007F346F34FB
:02400E00FA3F77
:00000001FF
